{
  "_format": "hh-sol-artifact-1",
  "contractName": "InsurancePolicy",
  "sourceName": "contracts/InsurancePolicy.sol",
  "abi": [
    {
      "inputs": [],
      "stateMutability": "nonpayable",
      "type": "constructor"
    },
    {
      "anonymous": false,
      "inputs": [
        {
          "indexed": true,
          "internalType": "uint256",
          "name": "claimId",
          "type": "uint256"
        },
        {
          "indexed": false,
          "internalType": "bool",
          "name": "isApproved",
          "type": "bool"
        }
      ],
      "name": "ClaimProcessed",
      "type": "event"
    },
    {
      "anonymous": false,
      "inputs": [
        {
          "indexed": true,
          "internalType": "uint256",
          "name": "claimId",
          "type": "uint256"
        },
        {
          "indexed": true,
          "internalType": "address",
          "name": "user",
          "type": "address"
        },
        {
          "indexed": true,
          "internalType": "uint256",
          "name": "policyId",
          "type": "uint256"
        },
        {
          "indexed": false,
          "internalType": "string",
          "name": "reason",
          "type": "string"
        }
      ],
      "name": "ClaimSubmitted",
      "type": "event"
    },
    {
      "anonymous": false,
      "inputs": [
        {
          "indexed": true,
          "internalType": "address",
          "name": "owner",
          "type": "address"
        },
        {
          "indexed": false,
          "internalType": "uint256",
          "name": "amount",
          "type": "uint256"
        }
      ],
      "name": "FundsWithdrawn",
      "type": "event"
    },
    {
      "anonymous": false,
      "inputs": [
        {
          "indexed": true,
          "internalType": "uint256",
          "name": "policyId",
          "type": "uint256"
        },
        {
          "indexed": false,
          "internalType": "string",
          "name": "name",
          "type": "string"
        },
        {
          "indexed": false,
          "internalType": "uint256",
          "name": "coverageAmount",
          "type": "uint256"
        },
        {
          "indexed": false,
          "internalType": "uint256",
          "name": "premiumAmount",
          "type": "uint256"
        }
      ],
      "name": "PolicyCreated",
      "type": "event"
    },
    {
      "anonymous": false,
      "inputs": [
        {
          "indexed": true,
          "internalType": "address",
          "name": "user",
          "type": "address"
        },
        {
          "indexed": true,
          "internalType": "uint256",
          "name": "policyId",
          "type": "uint256"
        },
        {
          "indexed": false,
          "internalType": "uint256",
          "name": "startTime",
          "type": "uint256"
        },
        {
          "indexed": false,
          "internalType": "uint256",
          "name": "expiryTime",
          "type": "uint256"
        }
      ],
      "name": "PolicyPurchased",
      "type": "event"
    },
    {
      "inputs": [
        {
          "internalType": "uint256",
          "name": "_policyId",
          "type": "uint256"
        }
      ],
      "name": "buyPolicy",
      "outputs": [],
      "stateMutability": "payable",
      "type": "function"
    },
    {
      "inputs": [],
      "name": "claimCount",
      "outputs": [
        {
          "internalType": "uint256",
          "name": "",
          "type": "uint256"
        }
      ],
      "stateMutability": "view",
      "type": "function"
    },
    {
      "inputs": [
        {
          "internalType": "uint256",
          "name": "",
          "type": "uint256"
        }
      ],
      "name": "claims",
      "outputs": [
        {
          "internalType": "uint256",
          "name": "id",
          "type": "uint256"
        },
        {
          "internalType": "address",
          "name": "user",
          "type": "address"
        },
        {
          "internalType": "uint256",
          "name": "policyId",
          "type": "uint256"
        },
        {
          "internalType": "string",
          "name": "reason",
          "type": "string"
        },
        {
          "internalType": "uint256",
          "name": "timestamp",
          "type": "uint256"
        },
        {
          "internalType": "bool",
          "name": "isApproved",
          "type": "bool"
        },
        {
          "internalType": "bool",
          "name": "isRejected",
          "type": "bool"
        }
      ],
      "stateMutability": "view",
      "type": "function"
    },
    {
      "inputs": [
        {
          "internalType": "string",
          "name": "_name",
          "type": "string"
        },
        {
          "internalType": "uint256",
          "name": "_coverageAmount",
          "type": "uint256"
        },
        {
          "internalType": "uint256",
          "name": "_premiumAmount",
          "type": "uint256"
        },
        {
          "internalType": "uint256",
          "name": "_duration",
          "type": "uint256"
        }
      ],
      "name": "createPolicy",
      "outputs": [],
      "stateMutability": "nonpayable",
      "type": "function"
    },
    {
      "inputs": [],
      "name": "getClaimCount",
      "outputs": [
        {
          "internalType": "uint256",
          "name": "",
          "type": "uint256"
        }
      ],
      "stateMutability": "view",
      "type": "function"
    },
    {
      "inputs": [],
      "name": "getPoliciesCount",
      "outputs": [
        {
          "internalType": "uint256",
          "name": "",
          "type": "uint256"
        }
      ],
      "stateMutability": "view",
      "type": "function"
    },
    {
      "inputs": [
        {
          "internalType": "address",
          "name": "_user",
          "type": "address"
        }
      ],
      "name": "getUserPoliciesCount",
      "outputs": [
        {
          "internalType": "uint256",
          "name": "",
          "type": "uint256"
        }
      ],
      "stateMutability": "view",
      "type": "function"
    },
    {
      "inputs": [],
      "name": "owner",
      "outputs": [
        {
          "internalType": "address",
          "name": "",
          "type": "address"
        }
      ],
      "stateMutability": "view",
      "type": "function"
    },
    {
      "inputs": [
        {
          "internalType": "uint256",
          "name": "",
          "type": "uint256"
        }
      ],
      "name": "policies",
      "outputs": [
        {
          "internalType": "uint256",
          "name": "id",
          "type": "uint256"
        },
        {
          "internalType": "string",
          "name": "name",
          "type": "string"
        },
        {
          "internalType": "uint256",
          "name": "coverageAmount",
          "type": "uint256"
        },
        {
          "internalType": "uint256",
          "name": "premiumAmount",
          "type": "uint256"
        },
        {
          "internalType": "uint256",
          "name": "duration",
          "type": "uint256"
        },
        {
          "internalType": "bool",
          "name": "isActive",
          "type": "bool"
        }
      ],
      "stateMutability": "view",
      "type": "function"
    },
    {
      "inputs": [
        {
          "internalType": "uint256",
          "name": "_claimId",
          "type": "uint256"
        },
        {
          "internalType": "bool",
          "name": "_approve",
          "type": "bool"
        }
      ],
      "name": "processClaim",
      "outputs": [],
      "stateMutability": "nonpayable",
      "type": "function"
    },
    {
      "inputs": [
        {
          "internalType": "uint256",
          "name": "_policyId",
          "type": "uint256"
        },
        {
          "internalType": "string",
          "name": "_reason",
          "type": "string"
        }
      ],
      "name": "submitClaim",
      "outputs": [],
      "stateMutability": "nonpayable",
      "type": "function"
    },
    {
      "inputs": [
        {
          "internalType": "address",
          "name": "",
          "type": "address"
        },
        {
          "internalType": "uint256",
          "name": "",
          "type": "uint256"
        }
      ],
      "name": "userPolicies",
      "outputs": [
        {
          "internalType": "uint256",
          "name": "policyId",
          "type": "uint256"
        },
        {
          "internalType": "uint256",
          "name": "startTime",
          "type": "uint256"
        },
        {
          "internalType": "uint256",
          "name": "expiryTime",
          "type": "uint256"
        },
        {
          "internalType": "bool",
          "name": "hasActiveClaim",
          "type": "bool"
        }
      ],
      "stateMutability": "view",
      "type": "function"
    },
    {
      "inputs": [],
      "name": "withdrawFunds",
      "outputs": [],
      "stateMutability": "nonpayable",
      "type": "function"
    }
  ],
  "bytecode": "0x608060405234801561001057600080fd5b50336000806101000a81548173ffffffffffffffffffffffffffffffffffffffff021916908373ffffffffffffffffffffffffffffffffffffffff16021790555061238a806100606000396000f3fe6080604052600436106100c25760003560e01c806379c888941161007f578063965abf6711610059578063965abf6714610248578063a888c2cd14610273578063ba4611d9146102b6578063d3e89483146102e1576100c2565b806379c88894146101d65780638da4d3c9146101f25780638da5cb5b1461021d576100c2565b806324600fc3146100c757806335446def146100de5780633d36adc51461010757806345b46525146101475780634ab72aae14610170578063610134e414610199575b600080fd5b3480156100d357600080fd5b506100dc610323565b005b3480156100ea57600080fd5b50610105600480360381019061010091906114f6565b6104d1565b005b34801561011357600080fd5b5061012e60048036038101906101299190611594565b6108fe565b60405161013e94939291906115f2565b60405180910390f35b34801561015357600080fd5b5061016e6004803603810190610169919061177d565b610958565b005b34801561017c57600080fd5b50610197600480360381019061019291906117d9565b610e1d565b005b3480156101a557600080fd5b506101c060048036038101906101bb919061185c565b610fb3565b6040516101cd9190611889565b60405180910390f35b6101f060048036038101906101eb91906118a4565b610fff565b005b3480156101fe57600080fd5b5061020761124e565b6040516102149190611889565b60405180910390f35b34801561022957600080fd5b50610232611254565b60405161023f91906118e0565b60405180910390f35b34801561025457600080fd5b5061025d611278565b60405161026a9190611889565b60405180910390f35b34801561027f57600080fd5b5061029a600480360381019061029591906118a4565b611285565b6040516102ad979695949392919061197a565b60405180910390f35b3480156102c257600080fd5b506102cb611389565b6040516102d89190611889565b60405180910390f35b3480156102ed57600080fd5b50610308600480360381019061030391906118a4565b611393565b60405161031a969594939291906119f0565b60405180910390f35b60008054906101000a900473ffffffffffffffffffffffffffffffffffffffff1673ffffffffffffffffffffffffffffffffffffffff163373ffffffffffffffffffffffffffffffffffffffff16146103b1576040517f08c379a00000000000000000000000000000000000000000000000000000000081526004016103a890611aca565b60405180910390fd5b6000479050600081116103f9576040517f08c379a00000000000000000000000000000000000000000000000000000000081526004016103f090611b36565b60405180910390fd5b60008054906101000a900473ffffffffffffffffffffffffffffffffffffffff1673ffffffffffffffffffffffffffffffffffffffff166108fc829081150290604051600060405180830381858888f1935050505015801561045f573d6000803e3d6000fd5b5060008054906101000a900473ffffffffffffffffffffffffffffffffffffffff1673ffffffffffffffffffffffffffffffffffffffff167feaff4b37086828766ad3268786972c0cd24259d4c87a80f9d3963a3c3d999b0d826040516104c69190611889565b60405180910390a250565b60008054906101000a900473ffffffffffffffffffffffffffffffffffffffff1673ffffffffffffffffffffffffffffffffffffffff163373ffffffffffffffffffffffffffffffffffffffff161461055f576040517f08c379a000000000000000000000000000000000000000000000000000000000815260040161055690611aca565b60405180910390fd5b60045482106105a3576040517f08c379a000000000000000000000000000000000000000000000000000000000815260040161059a90611ba2565b60405180910390fd5b60006003600084815260200190815260200160002090508060050160009054906101000a900460ff161580156105e857508060050160019054906101000a900460ff16155b610627576040517f08c379a000000000000000000000000000000000000000000000000000000000815260040161061e90611c0e565b60405180910390fd5b81156106e95760018160050160006101000a81548160ff0219169083151502179055506000600182600201548154811061066457610663611c2e565b5b906000526020600020906006020190508160010160009054906101000a900473ffffffffffffffffffffffffffffffffffffffff1673ffffffffffffffffffffffffffffffffffffffff166108fc82600201549081150290604051600060405180830381858888f193505050501580156106e2573d6000803e3d6000fd5b5050610707565b60018160050160016101000a81548160ff0219169083151502179055505b60005b600260008360010160009054906101000a900473ffffffffffffffffffffffffffffffffffffffff1673ffffffffffffffffffffffffffffffffffffffff1673ffffffffffffffffffffffffffffffffffffffff168152602001908152602001600020805490508110156108c0578160020154600260008460010160009054906101000a900473ffffffffffffffffffffffffffffffffffffffff1673ffffffffffffffffffffffffffffffffffffffff1673ffffffffffffffffffffffffffffffffffffffff16815260200190815260200160002082815481106107f2576107f1611c2e565b5b906000526020600020906004020160000154036108ad576000600260008460010160009054906101000a900473ffffffffffffffffffffffffffffffffffffffff1673ffffffffffffffffffffffffffffffffffffffff1673ffffffffffffffffffffffffffffffffffffffff16815260200190815260200160002082815481106108805761087f611c2e565b5b906000526020600020906004020160030160006101000a81548160ff0219169083151502179055506108c0565b80806108b890611c8c565b91505061070a565b50827fd4203892740c26c8184cfb101077c87ccf2d01beaf6aef0c250ab43bb43df202836040516108f19190611cd4565b60405180910390a2505050565b6002602052816000526040600020818154811061091a57600080fd5b9060005260206000209060040201600091509150508060000154908060010154908060020154908060030160009054906101000a900460ff16905084565b600180549050821061099f576040517f08c379a000000000000000000000000000000000000000000000000000000000815260040161099690611d3b565b60405180910390fd5b60008080600090505b600260003373ffffffffffffffffffffffffffffffffffffffff1673ffffffffffffffffffffffffffffffffffffffff16815260200190815260200160002080549050811015610a7a5784600260003373ffffffffffffffffffffffffffffffffffffffff1673ffffffffffffffffffffffffffffffffffffffff1681526020019081526020016000208281548110610a4457610a43611c2e565b5b90600052602060002090600402016000015403610a675760019250809150610a7a565b8080610a7290611c8c565b9150506109a8565b5081610abb576040517f08c379a0000000000000000000000000000000000000000000000000000000008152600401610ab290611da7565b60405180910390fd5b600260003373ffffffffffffffffffffffffffffffffffffffff1673ffffffffffffffffffffffffffffffffffffffff1681526020019081526020016000208181548110610b0c57610b0b611c2e565b5b906000526020600020906004020160030160009054906101000a900460ff1615610b6b576040517f08c379a0000000000000000000000000000000000000000000000000000000008152600401610b6290611e13565b60405180910390fd5b600260003373ffffffffffffffffffffffffffffffffffffffff1673ffffffffffffffffffffffffffffffffffffffff1681526020019081526020016000208181548110610bbc57610bbb611c2e565b5b906000526020600020906004020160020154421115610c10576040517f08c379a0000000000000000000000000000000000000000000000000000000008152600401610c0790611e7f565b60405180910390fd5b600060046000815480929190610c2590611c8c565b9190505590506040518060e001604052808281526020013373ffffffffffffffffffffffffffffffffffffffff16815260200186815260200185815260200142815260200160001515815260200160001515815250600360008381526020019081526020016000206000820151816000015560208201518160010160006101000a81548173ffffffffffffffffffffffffffffffffffffffff021916908373ffffffffffffffffffffffffffffffffffffffff160217905550604082015181600201556060820151816003019081610cfd91906120ab565b506080820151816004015560a08201518160050160006101000a81548160ff02191690831515021790555060c08201518160050160016101000a81548160ff0219169083151502179055509050506001600260003373ffffffffffffffffffffffffffffffffffffffff1673ffffffffffffffffffffffffffffffffffffffff1681526020019081526020016000208381548110610d9e57610d9d611c2e565b5b906000526020600020906004020160030160006101000a81548160ff021916908315150217905550843373ffffffffffffffffffffffffffffffffffffffff16827f95081ad7e72ba2e9a9457b1b8f0b632d020ea774fd5da576c1202d599041829487604051610e0e919061217d565b60405180910390a45050505050565b60008054906101000a900473ffffffffffffffffffffffffffffffffffffffff1673ffffffffffffffffffffffffffffffffffffffff163373ffffffffffffffffffffffffffffffffffffffff1614610eab576040517f08c379a0000000000000000000000000000000000000000000000000000000008152600401610ea290611aca565b60405180910390fd5b6000600180549050905060016040518060c00160405280838152602001878152602001868152602001858152602001848152602001600115158152509080600181540180825580915050600190039060005260206000209060060201600090919091909150600082015181600001556020820151816001019081610f2f91906120ab565b5060408201518160020155606082015181600301556080820151816004015560a08201518160050160006101000a81548160ff0219169083151502179055505050807fe09f2648d20de4fe12f6cee742e78adc038dabec17e470b29235213d6fa7169c868686604051610fa49392919061219f565b60405180910390a25050505050565b6000600260008373ffffffffffffffffffffffffffffffffffffffff1673ffffffffffffffffffffffffffffffffffffffff168152602001908152602001600020805490509050919050565b6001805490508110611046576040517f08c379a000000000000000000000000000000000000000000000000000000000815260040161103d90611d3b565b60405180910390fd5b60006001828154811061105c5761105b611c2e565b5b906000526020600020906006020190508060050160009054906101000a900460ff166110bd576040517f08c379a00000000000000000000000000000000000000000000000000000000081526004016110b490612229565b60405180910390fd5b8060030154341015611104576040517f08c379a00000000000000000000000000000000000000000000000000000000081526004016110fb90612295565b60405180910390fd5b6000429050600062015180836004015461111e91906122b5565b8261112991906122f7565b9050600260003373ffffffffffffffffffffffffffffffffffffffff1673ffffffffffffffffffffffffffffffffffffffff168152602001908152602001600020604051806080016040528086815260200184815260200183815260200160001515815250908060018154018082558091505060019003906000526020600020906004020160009091909190915060008201518160000155602082015181600101556040820151816002015560608201518160030160006101000a81548160ff0219169083151502179055505050833373ffffffffffffffffffffffffffffffffffffffff167f8b8961810a39fd56d36e421278c7737795a230b372ac246eb46d37eae370db5f848460405161124092919061232b565b60405180910390a350505050565b60045481565b60008054906101000a900473ffffffffffffffffffffffffffffffffffffffff1681565b6000600180549050905090565b60036020528060005260406000206000915090508060000154908060010160009054906101000a900473ffffffffffffffffffffffffffffffffffffffff16908060020154908060030180546112da90611ece565b80601f016020809104026020016040519081016040528092919081815260200182805461130690611ece565b80156113535780601f1061132857610100808354040283529160200191611353565b820191906000526020600020905b81548152906001019060200180831161133657829003601f168201915b5050505050908060040154908060050160009054906101000a900460ff16908060050160019054906101000a900460ff16905087565b6000600454905090565b600181815481106113a357600080fd5b90600052602060002090600602016000915090508060000154908060010180546113cc90611ece565b80601f01602080910402602001604051908101604052809291908181526020018280546113f890611ece565b80156114455780601f1061141a57610100808354040283529160200191611445565b820191906000526020600020905b81548152906001019060200180831161142857829003601f168201915b5050505050908060020154908060030154908060040154908060050160009054906101000a900460ff16905086565b6000604051905090565b600080fd5b600080fd5b6000819050919050565b61149b81611488565b81146114a657600080fd5b50565b6000813590506114b881611492565b92915050565b60008115159050919050565b6114d3816114be565b81146114de57600080fd5b50565b6000813590506114f0816114ca565b92915050565b6000806040838503121561150d5761150c61147e565b5b600061151b858286016114a9565b925050602061152c858286016114e1565b9150509250929050565b600073ffffffffffffffffffffffffffffffffffffffff82169050919050565b600061156182611536565b9050919050565b61157181611556565b811461157c57600080fd5b50565b60008135905061158e81611568565b92915050565b600080604083850312156115ab576115aa61147e565b5b60006115b98582860161157f565b92505060206115ca858286016114a9565b9150509250929050565b6115dd81611488565b82525050565b6115ec816114be565b82525050565b600060808201905061160760008301876115d4565b61161460208301866115d4565b61162160408301856115d4565b61162e60608301846115e3565b95945050505050565b600080fd5b600080fd5b6000601f19601f8301169050919050565b7f4e487b7100000000000000000000000000000000000000000000000000000000600052604160045260246000fd5b61168a82611641565b810181811067ffffffffffffffff821117156116a9576116a8611652565b5b80604052505050565b60006116bc611474565b90506116c88282611681565b919050565b600067ffffffffffffffff8211156116e8576116e7611652565b5b6116f182611641565b9050602081019050919050565b82818337600083830152505050565b600061172061171b846116cd565b6116b2565b90508281526020810184848401111561173c5761173b61163c565b5b6117478482856116fe565b509392505050565b600082601f83011261176457611763611637565b5b813561177484826020860161170d565b91505092915050565b600080604083850312156117945761179361147e565b5b60006117a2858286016114a9565b925050602083013567ffffffffffffffff8111156117c3576117c2611483565b5b6117cf8582860161174f565b9150509250929050565b600080600080608085870312156117f3576117f261147e565b5b600085013567ffffffffffffffff81111561181157611810611483565b5b61181d8782880161174f565b945050602061182e878288016114a9565b935050604061183f878288016114a9565b9250506060611850878288016114a9565b91505092959194509250565b6000602082840312156118725761187161147e565b5b60006118808482850161157f565b91505092915050565b600060208201905061189e60008301846115d4565b92915050565b6000602082840312156118ba576118b961147e565b5b60006118c8848285016114a9565b91505092915050565b6118da81611556565b82525050565b60006020820190506118f560008301846118d1565b92915050565b600081519050919050565b600082825260208201905092915050565b60005b8381101561193557808201518184015260208101905061191a565b60008484015250505050565b600061194c826118fb565b6119568185611906565b9350611966818560208601611917565b61196f81611641565b840191505092915050565b600060e08201905061198f600083018a6115d4565b61199c60208301896118d1565b6119a960408301886115d4565b81810360608301526119bb8187611941565b90506119ca60808301866115d4565b6119d760a08301856115e3565b6119e460c08301846115e3565b98975050505050505050565b600060c082019050611a0560008301896115d4565b8181036020830152611a178188611941565b9050611a2660408301876115d4565b611a3360608301866115d4565b611a4060808301856115d4565b611a4d60a08301846115e3565b979650505050505050565b7f4f6e6c79206f776e65722063616e2063616c6c20746869732066756e6374696f60008201527f6e00000000000000000000000000000000000000000000000000000000000000602082015250565b6000611ab4602183611906565b9150611abf82611a58565b604082019050919050565b60006020820190508181036000830152611ae381611aa7565b9050919050565b7f4e6f2066756e647320746f207769746864726177000000000000000000000000600082015250565b6000611b20601483611906565b9150611b2b82611aea565b602082019050919050565b60006020820190508181036000830152611b4f81611b13565b9050919050565b7f496e76616c696420636c61696d20494400000000000000000000000000000000600082015250565b6000611b8c601083611906565b9150611b9782611b56565b602082019050919050565b60006020820190508181036000830152611bbb81611b7f565b9050919050565b7f436c61696d20616c72656164792070726f636573736564000000000000000000600082015250565b6000611bf8601783611906565b9150611c0382611bc2565b602082019050919050565b60006020820190508181036000830152611c2781611beb565b9050919050565b7f4e487b7100000000000000000000000000000000000000000000000000000000600052603260045260246000fd5b7f4e487b7100000000000000000000000000000000000000000000000000000000600052601160045260246000fd5b6000611c9782611488565b91507fffffffffffffffffffffffffffffffffffffffffffffffffffffffffffffffff8203611cc957611cc8611c5d565b5b600182019050919050565b6000602082019050611ce960008301846115e3565b92915050565b7f496e76616c696420706f6c696379204944000000000000000000000000000000600082015250565b6000611d25601183611906565b9150611d3082611cef565b602082019050919050565b60006020820190508181036000830152611d5481611d18565b9050919050565b7f596f7520646f6e27742068617665207468697320706f6c696379000000000000600082015250565b6000611d91601a83611906565b9150611d9c82611d5b565b602082019050919050565b60006020820190508181036000830152611dc081611d84565b9050919050565b7f596f7520616c7265616479206861766520616e2061637469766520636c61696d600082015250565b6000611dfd602083611906565b9150611e0882611dc7565b602082019050919050565b60006020820190508181036000830152611e2c81611df0565b9050919050565b7f506f6c6963792068617320657870697265640000000000000000000000000000600082015250565b6000611e69601283611906565b9150611e7482611e33565b602082019050919050565b60006020820190508181036000830152611e9881611e5c565b9050919050565b7f4e487b7100000000000000000000000000000000000000000000000000000000600052602260045260246000fd5b60006002820490506001821680611ee657607f821691505b602082108103611ef957611ef8611e9f565b5b50919050565b60008190508160005260206000209050919050565b60006020601f8301049050919050565b600082821b905092915050565b600060088302611f617fffffffffffffffffffffffffffffffffffffffffffffffffffffffffffffffff82611f24565b611f6b8683611f24565b95508019841693508086168417925050509392505050565b6000819050919050565b6000611fa8611fa3611f9e84611488565b611f83565b611488565b9050919050565b6000819050919050565b611fc283611f8d565b611fd6611fce82611faf565b848454611f31565b825550505050565b600090565b611feb611fde565b611ff6818484611fb9565b505050565b5b8181101561201a5761200f600082611fe3565b600181019050611ffc565b5050565b601f82111561205f5761203081611eff565b61203984611f14565b81016020851015612048578190505b61205c61205485611f14565b830182611ffb565b50505b505050565b600082821c905092915050565b600061208260001984600802612064565b1980831691505092915050565b600061209b8383612071565b9150826002028217905092915050565b6120b4826118fb565b67ffffffffffffffff8111156120cd576120cc611652565b5b6120d78254611ece565b6120e282828561201e565b600060209050601f8311600181146121155760008415612103578287015190505b61210d858261208f565b865550612175565b601f19841661212386611eff565b60005b8281101561214b57848901518255600182019150602085019450602081019050612126565b868310156121685784890151612164601f891682612071565b8355505b6001600288020188555050505b505050505050565b600060208201905081810360008301526121978184611941565b905092915050565b600060608201905081810360008301526121b98186611941565b90506121c860208301856115d4565b6121d560408301846115d4565b949350505050565b7f506f6c696379206973206e6f7420616374697665000000000000000000000000600082015250565b6000612213601483611906565b915061221e826121dd565b602082019050919050565b6000602082019050818103600083015261224281612206565b9050919050565b7f496e73756666696369656e74207072656d69756d20616d6f756e740000000000600082015250565b600061227f601b83611906565b915061228a82612249565b602082019050919050565b600060208201905081810360008301526122ae81612272565b9050919050565b60006122c082611488565b91506122cb83611488565b92508282026122d981611488565b915082820484148315176122f0576122ef611c5d565b5b5092915050565b600061230282611488565b915061230d83611488565b925082820190508082111561232557612324611c5d565b5b92915050565b600060408201905061234060008301856115d4565b61234d60208301846115d4565b939250505056fea2646970667358221220383d9d9976fc84a5a8f929c0ff992c596b572c01474a1ca1c4ec2476974dea6764736f6c63430008140033",
  "linkReferences": {},
  "deployedLinkReferences": {}
}